:1000000033C0000041C000003FC000003DC0000000
:100010003BC0000039C0000037C0000035C0000000
:1000200033C0000031C000002FC000002DC0000010
:100030002BC0000029C0000027C0000025C0000020
:1000400023C0000021C000001FC0000088C00000C5
:100050001BC0000019C0000017C0000015C0000040
:1000600013C0000011C0000011241FBECFEFD8E064
:10007000DEBFCDBF21E0A0E0B1E001C01D92AB30FA
:10008000B207E1F7CFD01BC1BBCF84B1877C84B965
:1000900084B1886284B981E58CBD81E08DBD08950D
:1000A000FC01892BE9F0A081B18182819381A80FA5
:1000B000B91F6C9326813781828193810196B901A2
:1000C000EAD093838283448155818417950759F43C
:1000D0000196B901E0D09583848380E090E0089593
:1000E0008FEF9FEF089580E090E00895FC01892B49
:1000F000E1F061157105E1F0228133818481958100
:1001000028173907C1F0A081B181A80FB91F8C91C0
:10011000DB018C9384819581019666817781BBD0C8
:100120009583848380E090E008958FEF9FEF08959A
:100130008FEF9FEF08958FEF9FEF089586E084B9CA
:1001400087B980E88AB908959093C5008093C40068
:1001500088E28093C10086E08093C20008951F92D8
:100160000F920FB60F9211242F933F934F935F93EB
:100170006F937F938F939F93AF93BF93EF93FF936F
:10018000CF93DF931F92CDB7DEB719828091000124
:1001900081110FC0BE016F5F7F4F83E091E0A6DF4A
:1001A00089818093C600809100018F5F8093000158
:1001B00025C0813099F42FEF83ED90E321508040EA
:1001C0009040E1F700C00000809107018093C600D5
:1001D000809100018F5F8093000110C0823071F424
:1001E0002FEF83ED90E3215080409040E1F700C075
:1001F000000088E68093C600109200010F90DF9106
:10020000CF91FF91EF91BF91AF919F918F917F918E
:100210006F915F914F913F912F910F900FBE0F9073
:100220001F901895CF93DF93CDB7DEB7CC52D14056
:100230000FB6F894DEBF0FBECDBFE3E0F1E08CE275
:1002400091E097838683CE010196918380838FEF1F
:100250009FEF909302018093010117DF6FDF789485
:1002600087E690E071DF03E011E0F801828193817D
:100270000196668177810FD024813581281739074F
:1002800021F061E6C8010CDFF0CFF8011382128281
:1002900015821482EACFAA1BBB1B51E107C0AA1F1B
:1002A000BB1FA617B70710F0A61BB70B881F991F17
:1002B0005A95A9F780959095BC01CD010895F894C1
:0202C000FFCF6E
:00000001FF
