S01F00004B6F6D6D756E696B61736A6F6E7350726F746F6B6F6C6C2E7372656366
S113000071C0000081C000007FC000007DC00000FE
S11300107BC0000079C0000077C0000075C00000FC
S113002073C0000071C000006FC000006DC000000C
S11300306BC0000069C0000067C0000065C000001C
S113004063C0000061C000005FC000005DC000002C
S11300505BC0000059C0000057C0000055C000003C
S113006053C0000051C000005BC000004DC0000040
S11300704BC0000049C0000047C0000045C000005C
S113008043C0000041C000003FC000003DC000006C
S11300903BC0000039C0000037C0000035C000007C
S11300A033C0000031C000002FC000002DC000008C
S11300B02BC0000029C0000027C0000025C000009C
S11300C023C0000021C000001FC000001DC00000AC
S11300D01BC0000019C0000017C0000015C00000BC
S11300E013C0000011241FBECFEFD1E2DEBFCDBF8D
S11300F000E00CBF22E0A0E0B2E001C01D92A430F9
S1130100B207E1F71CD02CC07BCF9093C50080933D
S1130110C40088E28093C10086E08093C200089501
S11301201F920F920FB60F9211248F9381E4809344
S1130130C6008F910F900FBE0F901F9018958FEFF0
S11301409FEF909303028093020280E98093000260
S11301508BEE80930102789487E690E0D6DFFFCFA0
S1070160F894FFCF3D
S9030000FC
