:1000000033C0000041C000003FC000003DC0000000
:100010003BC0000039C0000037C0000035C0000000
:1000200033C0000031C000002FC000002DC0000010
:100030002BC0000029C0000027C0000025C0000020
:1000400023C0000021C000001FC000001DC0000030
:100050001BC0000019C0000017C0000015C0000040
:1000600013C0000011C0000011241FBECFEFD8E064
:10007000DEBFCDBF21E0A0E0B1E001C01D92A03005
:10008000B207E1F713D017C0BBCF84B1877C84B926
:1000900084B1886284B981E58CBD81E08DBD08950D
:1000A00086E084B987B980E88AB90895EEDFF8DF81
:0A00B00080E090E00895F894FFCF7F
:00000001FF
