:1000000071C0000079C0000077C0000075C000001A
:1000100073C0000071C000006FC000006DC0000020
:100020006BC0000069C0000067C0000065C0000030
:1000300063C0000061C000005FC000005DC0000040
:100040005BC0000059C0000057C0000055C0000050
:1000500053C0000051C000004FC000004DC0000060
:100060004BC0000049C0000047C0000045C0000070
:1000700043C0000041C000003FC000003DC0000080
:100080003BC0000039C0000037C0000035C0000090
:1000900033C0000031C000002FC000002DC00000A0
:1000A0002BC0000029C0000027C0000025C00000B0
:1000B00023C0000021C000001FC000001DC00000C0
:1000C0001BC0000019C0000017C0000015C00000D0
:1000D00013C0000011C000000FC000000DC00000E0
:1000E0000BC0000011241FBECFEFD1E2DEBFCDBF99
:1000F00000E00CBF32D0A5C083CF84B1837C84B92B
:1001000084B18C6284B981E58CBD81E08DBD089598
:10011000ECEBF0E0108294EA908390819923ECF765
:100120009091B900987F9830A1F48093BB0084E847
:100130008093BC00ECEBF0E080818823ECF7909199
:10014000B900987F983139F081E0903429F480E04B
:10015000089581E0089580E00895DF92EF92FF9284
:100160000F931F93CF93DF93C8DF82EDD1DF6FEF43
:100170007FEF809100009091010042D002E010E0FA
:100180000F2EF2E0EF2EF2E0FF2EF02DE80160EFEF
:1001900070E0CE0135D02196EC16FD06C1F7C801FE
:1001A0002AD0D82EC0910000D0910100CE0123D0DA
:1001B0008D25082E8295807F8025092E982F829587
:1001C0008F700826869598278927880F880F880FB3
:1001D0008025BC01CE0114D00F5F1F4F0E151F05E7
:1001E000F1F680E090E0DF91CF911F910F91FF90A9
:1001F000EF90DF900895A8E1B0E042E050E005C044
:1002000012D0272F11C0DC01CB01FC01F999FECFE0
:1002100006C0F2BDE1BDF89A319600B40D9241508E
:100220005040B8F70895262FF999FECF1FBA92BD16
:1002300081BD20BD0FB6F894FA9AF99A0FBE0196C7
:060240000895F894FFCFC1
:00000001FF
