S01F00004B6F6D6D756E696B61736A6F6E7350726F746F6B6F6C6C2E7372656366
S113000033C0000041C000003FC000003DC00000FC
S11300103BC0000039C0000037C0000035C00000FC
S113002033C0000031C000002FC000002DC000000C
S11300302BC0000029C0000027C0000025C000001C
S113004023C0000021C000001FC000001DC000002C
S11300501BC0000019C0000017C0000015C000003C
S113006013C0000011C0000011241FBECFEFD8E060
S1130070DEBFCDBF21E0A0E0B1E001C01D92AA30F7
S1130080B207E1F71ED03FC0BBCF84B1877C84B9EF
S113009084B1886284B981E58CBD81E08DBD089509
S11300A086E084B987B980EC8AB908959093C50035
S11300B08093C40088E28093C10086E08093C200EC
S11300C00895CF93DF93CDB7DEB7CE5FD1400FB69F
S11300D0F894DEBF0FBECDBFE2E0F1E08FEF90E019
S11300E097838683CE010196918380838FEF9FEF60
S11300F09093010180930001C8DFD2DF789487E6F2
S10D010090E0D4DFFFCFF894FFCFA6
S9030000FC
