:1000000033C0000041C000003FC000003DC0000000
:100010003BC0000039C0000037C0000035C0000000
:1000200033C0000031C000002FC000002DC0000010
:100030002BC0000029C0000027C0000025C0000020
:1000400023C0000021C000001FC0000088C00000C5
:100050001BC0000019C0000017C0000015C0000040
:1000600013C0000011C0000011241FBECFEFD8E064
:10007000DEBFCDBF22E0A0E0B1E001C01D92A633FB
:10008000B207E1F7A0D0DFC0BBCF84B1877C84B9D1
:1000900084B1886284B981E58CBD81E08DBD08950D
:1000A000FC01892BE9F0A081B18182819381A80FA5
:1000B000B91F6C9326813781828193810196B901A2
:1000C000AED093838283448155818417950759F478
:1000D0000196B901A4D09583848380E090E00895CF
:1000E0008FEF9FEF089580E090E00895FC01892B49
:1000F000E1F061157105E1F0228133818481958100
:1001000028173907C1F0A081B181A80FB91F8C91C0
:10011000DB018C93848195810196668177817FD004
:100120009583848380E090E008958FEF9FEF08959A
:100130008FEF9FEF08958FEF9FEF089586E084B9CA
:1001400087B980E88AB908959093C5008093C40068
:1001500088E28093C10086E08093C20008951F92D8
:100160000F920FB60F9211242F933F934F935F93EB
:100170006F937F938F939F93AF93BF93EF93FF936F
:10018000CF93DF931F92CDB7DEB71982BE016F5FA9
:100190007F4F82E091E0AADF89818093C6000F90B3
:1001A000DF91CF91FF91EF91BF91AF919F918F918F
:1001B0007F916F915F914F913F912F910F900FBE63
:1001C0000F901F901895E2E0F1E08CE291E09783A8
:1001D00086838AE091E0918380838FEF9FEF9093F5
:1001E00001018093000151DFA9DF789487E690E058
:1001F000ABDFC2E0D1E08A819B8101966E817F8175
:100200000ED02C813D812817390721F061E6CE01FF
:1002100047DFF1CF1B821A821D821C82ECCFAA1B02
:10022000BB1B51E107C0AA1FBB1FA617B70710F0E1
:10023000A61BB70B881F991F5A95A9F78095909513
:0A024000BC01CD010895F894FFCF32
:00000001FF
