:1000000071C000008EC000008CC000008AC00000DB
:1000100088C0000086C0000084C0000082C00000CC
:1000200080C000007EC000007CC000007AC00000DC
:1000300078C0000076C0000074C0000072C00000EC
:1000400070C000006EC000006CC000006AC00000FC
:1000500068C0000066C0000064C0000062C000000C
:1000600060C000005EC000005CC000005AC000001C
:1000700058C0000056C0000054C0000052C000002C
:1000800050C000004EC000004CC000004AC000003C
:1000900048C0000046C0000044C0000042C000004C
:1000A00040C000003EC000003CC000003AC000005C
:1000B00038C0000036C0000034C0000032C000006C
:1000C00030C000002EC000002CC000002AC000007C
:1000D00028C0000026C0000024C0000022C000008C
:1000E00020C0000011241FBECFEFD1E2DEBFCDBF84
:1000F00000E00CBF22E0A6E0B2E001C01D92AE30ED
:10010000B207E1F712E0A0E0B2E0E0E3F4E000E0E3
:100110000BBF02C007900D92A630B107D9F728D0C7
:1001200085C16ECFFC01892BE9F0A081B18182816C
:100130009381A80FB91F6C932681378182819381A7
:100140000196B9013ED093838283448155818417FF
:10015000950759F40196B90134D09583848380E0E2
:1001600090E008958FEF9FEF089580E090E008956C
:10017000CF93DF93CDB7DEB728970FB6F894DEBFE5
:100180000FBECDBF85E090E098878F832ED09A83F5
:1001900089838FEF9FEF90930902809308028DEC83
:1001A000809306026DECCE010196BCDF80E090E00A
:1001B00028960FB6F894DEBF0FBECDBFDF91CF916A
:1001C0000895AA1BBB1B51E107C0AA1FBB1FA6179E
:1001D000B70710F0A61BB70B881F991F5A95A9F7F0
:1001E00080959095BC01CD0108950F931F93CF93F7
:1001F000DF938230910510F482E090E0E0910C02F0
:10020000F0910D0220E030E0A0E0B0E0309719F16D
:10021000408151810281138148175907C8F0841722
:10022000950769F4109731F012960C931297139674
:100230001C9327C000930C0210930D0222C02115BD
:10024000310519F04217530718F49A01BD01EF0167
:10025000DF01F801DBCF21153105F9F0281B390B3F
:100260002430310580F48A819B816115710521F06C
:10027000FB019383828304C090930D0280930C0250
:10028000FE01329644C0FE01E20FF31F8193919369
:1002900022503109398328833AC020910A023091D3
:1002A0000B02232B41F42091020230910302309380
:1002B0000B0220930A0220910002309101022115C5
:1002C000310541F42DB73EB740910402509105022B
:1002D000241B350BE0910A02F0910B02E217F307A1
:1002E000A0F42E1B3F0B2817390778F0AC014E5FA6
:1002F0005F4F2417350748F04E0F5F1F50930B02D6
:1003000040930A028193919302C0E0E0F0E0CF01B4
:10031000DF91CF911F910F910895CF93DF930097B5
:1003200009F481C0FC01329713821282A0910C0261
:10033000B0910D02109781F420813181820F931FBB
:1003400020910A0230910B022817390751F5F093DA
:100350000B02E0930A0267C0ED0120E030E0CE1707
:10036000DF0740F44A815B819E0141155105F1F0A0
:10037000EA01F5CFD383C28340815181840F951F59
:10038000C817D90759F488819981840F951F02965F
:10039000918380838A819B81938382832115310598
:1003A00029F4F0930D02E0930C023DC0E901FB83B8
:1003B000EA8349915991C40FD51FEC17FD0761F4E9
:1003C00080819181840F951F0296E901998388832A
:1003D000828193819B838A83E0E0F0E012968D9185
:1003E0009C911397009719F0FD01DC01F7CF8D91D7
:1003F0009C9111979D012E5F3F4F820F931F20917B
:100400000A0230910B022817390769F4309729F452
:1004100010920D0210920C0202C013821282B0934D
:100420000B02A0930A02DF91CF910895F894FFCFB9
:0604300000000E02200096
:00000001FF
