:1000000033C0000041C000003FC000003DC0000000
:100010003BC0000039C0000037C0000035C0000000
:1000200033C0000031C000002FC000002DC0000010
:100030002BC0000029C0000027C0000025C0000020
:1000400023C0000021C000001FC000001EC000002F
:100050001BC0000019C0000017C0000015C0000040
:1000600013C0000011C0000011241FBECFEFD8E064
:10007000DEBFCDBF21E0A0E0B1E001C01D92AB33F7
:10008000B207E1F731D0B9C2BBCF1F920F920FB6C2
:100090000F9211242F935F936F937F938F939F936E
:1000A000AF93BF93EF93FF93E0E0F1E084819581FC
:1000B000A081B181A80FB91F2C910196668177812B
:1000C00079D2958384832093C600FF91EF91BF91ED
:1000D000AF919F918F917F916F915F912F910F9031
:1000E0000FBE0F901F901895CF93DF9300D000D0D4
:1000F0001F92CDB7DEB788E091E090930101809325
:10010000000183E390E09093070180930601198238
:100110001A8285E08B83EFEFFFEFFD83EC83409144
:10012000020150910301DA01A85FBE4F1AEA1C9345
:100130004F5F5F4F9A01A1EAB0EA50D2969587953A
:10014000929582958F7089279F70892763E3689FB6
:100150009001699F300D1124421B530B50930301F2
:100160004093020129818B8130E090E001972817AC
:100170003907A1F0CF018127082E8295807F802545
:10018000092E982F82958F700826869598278927A3
:10019000880F880F880F80259D838C831092C5005F
:1001A00083E38093C40088E28093C10086E080935B
:1001B000C2007894A0900401B0900501E090020183
:1001C000F090030100910601109107012C813D81FF
:1001D000F701319684E3582E93E3692E4DEC742E8B
:1001E0005BE6852E60E9962ECC24CA94DC2CCF01E8
:1001F000B801E0D18A159B0509F483C08981882361
:1002000009F480C08981813009F4EAC08981823093
:1002100009F41AC18981833009F44AC18981843083
:1002200031F78091000190910101FC01EE0DFF1D5D
:100230003083809102019091030101966091060143
:1002400070910701B7D190930301809302016981F6
:100250004B8170E050E0415051096417750789F0F7
:100260002327022E2295207F2025032E322F229530
:100270002F700226269532272327220F220F220FC6
:1002800020254091000150910101FA01E80FF91F6A
:100290002083009106011091070180910201909145
:1002A00003010196B80186D17C01909303018093EC
:1002B000020169814B8170E050E04150510964179F
:1002C000750789F02227022E2295207F2025032EF4
:1002D000322F22952F700226269532272327220FB0
:1002E000220F220F20251982A0900401B090050151
:1002F000FC013196CF01B8015DD18A159B0509F04B
:100300007DCFFFCF8091000190910101FC01EE0DA6
:10031000FF1D8082809102019091030101966091FE
:1003200006017091070146D1909303018093020169
:1003300049812B8150E030E02150310942175307A9
:1003400009F4C1C096012825022E2295207F202580
:10035000032E322F22952F7002262695322723272F
:10036000220F220F220F2025409100015091010100
:10037000FA01E80FF91F9082009106011091070120
:1003800080910201909103010196B80113D17C0183
:10039000909303018093020169814B8170E050E0EA
:1003A000415051096417750789F02925022E2295BD
:1003B000207F2025032E322F22952F70022626958E
:1003C00032272327220F220F220F202549814F5F3A
:1003D0004983A0900401B0900501FC01319607CF3C
:1003E000EA818091000190910101DC01AE0DBF1DF9
:1003F000EC93009106011091070180910201909108
:1004000003010196B801D6D07C019093030180933B
:10041000020169814B8170E050E04150510964173D
:100420007507A1F22E27022E2295207F2025032E6C
:10043000322F22952F700226269532272327220F4E
:10044000220F220F2025C2CF80910001909101013F
:10045000FC01EE0DFF1D7082009106011091070155
:1004600080910201909103010196B801A3D07C0113
:10047000909303018093020169814B8170E050E009
:10048000415051096417750709F4A0CF2725022EA2
:100490002295207F2025032E322F22952F700226B1
:1004A000269532272327220F220F220F20258ECFB9
:1004B0008A81882359F08A81813009F442C0898178
:1004C0008F5F898394CE2FEF3FEF4ECFE0910001F5
:1004D000F0910101EE0DFF1D608200910601109167
:1004E000070180910201909103010196B80162D049
:1004F0007C01909303018093020169814B8170E03C
:1005000050E0415051096417750789F02625022EE5
:100510002295207F2025032E322F22952F70022630
:10052000269532272327220F220F220F20254A81CA
:100530004F5F4A83A0900401B0900501FC01319601
:10054000BECFE0910001F0910101EE0DFF1D508240
:100550000091060110910701809102019091030121
:100560000196B80127D07C0190930301809302018A
:1005700069814B8170E050E0415051096417750763
:1005800089F02525022E2295207F2025032E322F4B
:1005900022952F700226269532272327220F220F1D
:1005A000220F20251A82A0900401B0900501FC01C1
:1005B000319685CFAA1BBB1B51E107C0AA1FBB1FE9
:1005C000A617B70710F0A61BB70B881F991F5A95DF
:1005D000A9F780959095BC01CD010895A29FB00127
:1005E000B39FC001A39F700D811D1124911DB29F67
:0E05F000700D811D1124911D0895F894FFCF08
:00000001FF
